:020000020000FC
:100000000C9402000FEF11E00AB9FAE0EEEB0E9447
:100010001E00FCE0E6E50E941E00FCE0E8E00E9415
:100020001E00FCE0E8E00E941E00FAE0E0E00E9412
:100030001E000E9488060E948806E7CF45914BB9B2
:100040000E94880645914BB90E94880645914BB99C
:100050000E94880645914BB90E94880645914BB98C
:060060000E9488060895CD
:100A00007F4848487F00FF494949360000010101FD
:100A100001010001000000000001010000000000D1
:100A200001010000000000010100000000000100C1
:100A300001010101010101010000000000010100AC
:100A4000000000000101000000010001010101019E
:100A5000000001010101010101010000010000018C
:100A6000010000010000010100000100000101007F
:100A7000000100000100010101010101010100006C
:100A80000100000001000001000000010000010061
:100A9000000001000001000000000101010101014E
:100AA000010100000000000101000001000001013F
:100AB0000000010000010100000101010100FF1020
:100AC0001210FF0001000000000001010000000002
:100AD000000101010101010101010000000000010C
:100AE0000100000000000100000000000101000002
:100AF00000000000000100000000000001000000F4
:100B000000000001010101010101000001010101DA
:100B100001010100000001000000000001000100CF
:100B200000000100000001000100000000000100C1
:100B300001010101010101000000000000010000AD
:100B400000000000010000000000000100000000A3
:100B5000000001000101010101010100010000008C
:100B60000000000001010000000001000000000082
:100B70000101010101010100010101010101010067
:100B80000100000000000000010000000000000063
:100B9000010000000101010101010100000101014A
:100BA0000101000100000000000101000000000040
:100BB000010100000000000100010101010100002D
:100BC000010101010101010100000100000001001B
:100BD0000001000000010000010000000001010010
:100BE0000000000000010101010000010000000000
:100BF00001000100000000010001000000000100F0
:100C00000001010101000100FF48484937000001CF
:100C100001000000000100000100000101000001CE
:100C200000000101000001000001000000000101BE
:100C300000000100000000000001000000000000B2
:100C4000010101010101010100000000000001009B
:100C5000000000000000FE010101FE000101010191
:100C60000100000000000000010000000000000082
:100C7000010000000000010001010101010000006D
:100C8000010101010101010000000000010000005C
:100C9000000001000000000000000100010101014E
:100CA000010101000100000000000100010000003E
:100CB000010000000101010000000100000001002E
:100CC000010000000000010001010100000000001F
:100CD0000000010000000000000001010100000010
:100CE00001000000010101000000000001000000FF
:100CF00000010101000000010001010000010000ED
:100D000001010001000000010101000000000100DC
:100D10002EE43BEE3A95F1F72A95E1F700000895AD
:00000001FF
